:0200000079285D
:10000800803120007F08F600111C742821001D088B
:10001800833974389D00EF30F3001228F30B112850
:100028001528162821001D149D14EF30F3001C28F4
:10003800F30B1B281F28202821001C08F801F807AB
:100048001B08F701F7073C30F7070030F83D02308E
:1000580078023C3003197702031C5A282D009317A5
:1000680020008C10023078023C3003197702031C00
:100078005A2820000C150330F5000830F4007830B9
:10008800F300F30B4528F40B4528F50B4528200011
:100098000C110330F5000830F4007830F300F30B4E
:1000A8005328F40B5328F50B53283628ED24210048
:1000B8001D149D14EF30F3006128F30B60286428A9
:1000C800652821001C082000C201C20721001B0866
:1000D8002000C101C1072725F5238B172000111027
:1000E8008B1711107608FF0009007A28F701F8012C
:1000F800F901203084000030850023301B252000C2
:100108004B2B20005108D7005208D8005308D900BB
:100118000310580D590DDA005A08DB00DB08031DDF
:100128009C280030D1000030D2000030D3000800F5
:100138005408D7005508D8005608D9000310580DA0
:10014800590DDA005A08E000E008031DB228003013
:10015800D1000030D2000030D300080060087B3E98
:10016800D7005708DB075108D7005208D8005308B2
:10017800D9001030D936D80CD70C890BBE285708AF
:10018800DA005A08E0005408D7005508D800560885
:10019800D9001030D936D80CD70C890BCE2857087F
:1001A800DA005A08E0068030D7005708E005D21771
:1001B800D517FF30D405FF30D5050030D6050030FF
:1001C800DC000030DD000030DE000730D7005708C3
:1001D800DF00511CF5285408DC075508DD3D56089A
:1001E800DE3D0130D336D20CD10C890BF628013014
:1001F800D435D50DD60D890BFC280130DF02031D3F
:10020800ED280930D7005708DF00511C1129540880
:10021800DC075508DD3D5608DE3D0130D336D20CEB
:10022800D10C890B12290130DE36DD0CDC0C890B70
:1002380018290130DF02031D09295C08C3005D0885
:10024800C4005E08C5005B08D7005708C6006008F0
:10025800D8005808C7004A2220004308D1004408A3
:10026800D2004508D300080020003909E1003A0906
:10027800E200E10A0319E20A3F086107BB004008EF
:10028800623DBC003B08BD073C08BE3D3E08803AC5
:10029800FF0093307F02031D532989303D02031C60
:1002A80058292000BD01BE0120003E08803AFF0009
:1002B8006C307F02031D622978303D0203186729DC
:1002C8002000BD01BE01CD302000D100CC30D200CD
:1002D8003D30D3003C08CC01CC073B08CB01CB0711
:1002E8003A2420004B08D4004C08D5004D08D6000D
:1002F800852020005108A6005208A7005308A8002E
:100308002608C3002708C4002808C500C321200008
:100318004408B801B8074308B701B707CD30D10082
:100328004C30D2003D30D3003E08CC01CC073D080C
:10033800CB01CB073A2420004B08D4004C08D50049
:100348004D08D600852020005108A0005208A100C1
:100358005308A2002008C3002108C4002208C500D1
:10036800C32120004408B201B2074308B101B10714
:1003780031083707B3003208383DB40008002000C0
:100388004308C7004408C8004508C9000310480DC1
:10039800490DCA004A08D000D008031DDC290030E6
:1003A800C6000030C5000030C4000030C30008009B
:1003B8004308C7004408C8004508C9001730C936B3
:1003C800C80CC70C890BE3294708CA004A08CB00A8
:1003D800C417FF30C305FF30C4050030C505430806
:1003E800CC004408CD004508CE00CF018E30D002A5
:1003F800D01F1A2A5008803A8F3E03180C2A003062
:10040800C6000030C5000030C4000030C30008003A
:100418000130CF36CE0CCD0CCC0C890B0D2A013017
:10042800C7004708D0070319332A0C2A183050028E
:10043800031C302A0030C6000030C5000030C4005C
:100448000030C30008000130CC35CD0DCE0DCF0DE6
:10045800890B282A0130D002D008031D272A4B080F
:100468000319412ACC09CD09CE09CF09CC0A0319B1
:10047800CD0A0319CE0A0319CF0A4F08C6004E0841
:10048800C5004D08C4004C08C300080020004608F9
:100498000319532A450844044304031D642A003001
:1004A800C3000030C4000030C50008000130C80097
:1004B8004808C6070130C536C40CC30C890B5F2A2F
:1004C800FE30450503197D2A5A2A0130C80048081C
:1004D800C6070130C307003003180130C4070030D5
:1004E80003180130C5070130C536C40CC30C890B8D
:1004F800782AFF30450503198A2A692A0130C6027D
:100508000130C335C40DC50D890B852AC41F822A45
:100518004618942AFF30C3057F30C405FF30C5054F
:100528000310C60C4608C800C901CA011030C835F6
:10053800C90DCA0D890B9B2A4808C3044908C4047D
:100548004A08C504470803190800C5170800200011
:100558004208C401C4074108C301C3070030C500ED
:100568000030C6005B2420004408CC01CC074308B7
:10057800CB01CB073A2420004B08A3004C08A40069
:100588004D08A5002308C3002408C4002508C50099
:10059800C32120004408B601B6074308B501B507D2
:1005A80033083507AF003408363DB0003008250061
:1005B8009201920720002F08250091019107200041
:1005C8003008803AFF0084307F02031DED2A003096
:1005D8002F02031CF42A033025009200FF309100FB
:1005E80020003008803AFF0080307F02031DFE2A79
:1005F8006E302F02031808000030250092006E307C
:100608009100080000302000CA000030CB00003004
:10061800CC004508440443040319442BCD01CD0AFA
:10062800C51B212B0130C335C40DC50D890B172BF4
:100638000130C9004908CD07142B0130CA35CB0D4C
:10064800CC0D890B222B45084802031D312B440889
:100658004702031D312B43084602031C3A2B43086B
:10066800C6024408C73B4508C83B4A140130C53692
:10067800C40CC30C890B3B2B0130CD02031D212B6D
:100688004A08C3004B08C4004C08C5000800AA2447
:1006980014250A252125FC24BC241824DE242D2514
:1006A800CE242000AF01B001B301B401BB01BC01ED
:1006B800BD01BE012D00961720009C1718143B00A1
:1006C800991721001D149D14EF302000E3006C2BB6
:1006D800E30B6B2B6F2B702B21009D18702B1C08C4
:1006E8002000C201C20721001B082000C101C10768
:1006F800AB2279248F23382120008C110C118C1403
:10070800911891102200151C8C2B2D001610652BAA
:100718002D001614652B3B000F082000C3003B007A
:1007280010082000C4003B0011082000C500183044
:10073800C6007930C7000030C800062320004308EF
:10074800CE004408CF004508D0001E30D10000304C
:10075800D2000030D300CE2320004E08D7004F0827
:10076800D8005008D900952420005708AC00580834
:10077800AD005908AE002C08C3002D08C4002E088F
:10078800C500C32120004408BA01BA074308B901CB
:10079800B907080000302000D4000030D500003030
:1007A800D6004E1CDD2B5108D4075208D53D5308FE
:1007B800D63D0130D135D20DD30D890BDE2B01305A
:1007C800D036CF0CCE0C890BE42B50084F044E04C6
:1007D800031DD52B5408CE005508CF005608D0006D
:1007E80008002D00931F08002D00931F080020000B
:1007F8008C150330F2000830F1007830F000F00B6F
:10080800032CF10B032CF20B032C20008C1103306A
:10081800F2000830F1007830F000F00B112CF10BE9
:10082800112CF20B112CF82B80303B009800423031
:10083800990001309C0003309B0000308C00003090
:100848008D0000308E0000308F00003090000030A6
:100858009100003092000030930000309400003086
:100868009500003096000030970008002000D00165
:10087800CC1F452CCB09CC09CB0A0319CC0AD001D3
:10088800D00A4B08C3004C08C400C5018E30CE0006
:100898004E08C6005008CF004F08C7004A22200063
:1008A8004308CB004408CC004508CD0008002000D0
:1008B800C701C801431C642C4508C7074608C83D42
:1008C8000130C535C60D890B652C0130C436C30C03
:1008D800890B6A2C44084304031D5E2C4808C40194
:1008E800C4074708C301C307080020004135CB00EF
:1008F800420DCC003A2420004B08A9004C08AA005D
:100908004D08AB002908C3002A08C4002B08C500FD
:10091800C32120004408C001C0074308BF01BF0726
:10092800080020005708C3005808C4005908C5002B
:100938008E30DA005A08C600C7014A222000430850
:10094800D7004408D8004508D900080078302100AD
:10095800990022008C01113021008C0010302300F6
:100968008C00023021008E00023023008E00080027
:100978002D00960102309600203091002030920020
:1009880097010F309800990103309A00283093009E
:100998001415080021009C019B01D0309E000C30EA
:1009A8009D00EF302000C300D92CC30BD82CDC2CC1
:1009B800DD2C080030302000980099013C30970069
:1009C800AF3096001708FB01FB071608FA01FA0773
:1009D800080021009C019B01D0309E000C309D0036
:1009E800EF30F000F72CF00BF62CFA2CFB2C08005B
:1009F80020009E0107309C00FF309B009A01911057
:100A0800CC30250093009101920108008430220027
:100A18009100063092008430930011309400080051
:100A280022009716171697179711171508006400D4
:100A380080010131890B1C2D003488302200980078
:100A48000530990008007B08200097007A08960076
:0C0A580008008B170B1721001114080078
:020000040001F9
:06000E00BCFFFFFE9FFF96
:00000001FF
